:100000000C9446000C945D000C945D000C945D0013
:100010000C945D000C945D000C945D000C945D00EC
:100020000C945D000C945D000C945D000C945D00DC
:100030000C945D000C945D000C945D000C945D00CC
:100040000C945D000C945D000C945D000C945D00BC
:100050000C945D000C945D000C945D000C945D00AC
:100060000C945D000C945D000C945D000C945D009C
:100070000C945D000C945D000C945D000C945D008C
:100080000C945D000C945D000C945D0011241FBE67
:10009000CFEFD0E4DEBFCDBF11E0A0E0B1E0E6EBF2
:1000A000F1E000E00BBF02C007900D92AE30B10747
:1000B000D9F70E9488000C94D9000C940000CF93CB
:1000C000DF9300D01F92CDB7DEB789837B836A832D
:1000D00089818A3031F48A819B81BC018DE00E9444
:1000E0005F0080EC90E0FC018081882F90E08072BE
:1000F00099270097B1F386EC90E02981FC012083D9
:1001000080E090E00F900F900F90DF91CF910895D5
:10011000CF93DF9300D000D01F92CDB7DEB781E23E
:1001200090E0FC01808182E290E02FEFFC012083CF
:1001300087E290E02FEFFC01208388E290E0FC0151
:10014000108219821A8280E290E0FC018081817025
:100150008B8380E290E0FC01808182708C838C81B3
:1001600086958C8380E290E0FC01808184708D8391
:100170008D81869586958D8380E290E0FC0180815B
:1001800088708A838A818695869586958A839B81E5
:100190008C81980F8D81980F8A81890F94E0F92FB7
:1001A000F81B8F2F898388E290E02981FC0120834E
:0601B000CACFF894FFCF56
:0E01B60000000002000000005F0000000000DA
:00000001FF
